{
  "_format": "hh-sol-artifact-1",
  "contractName": "Swap",
  "sourceName": "contracts/Swap.sol",
  "abi": [
    {
      "inputs": [],
      "stateMutability": "nonpayable",
      "type": "constructor"
    },
    {
      "anonymous": false,
      "inputs": [
        {
          "indexed": true,
          "internalType": "address",
          "name": "sender",
          "type": "address"
        },
        {
          "indexed": true,
          "internalType": "address",
          "name": "tokenAddress",
          "type": "address"
        },
        {
          "indexed": false,
          "internalType": "uint256",
          "name": "inputAmount",
          "type": "uint256"
        },
        {
          "indexed": false,
          "internalType": "uint256",
          "name": "outputAmount",
          "type": "uint256"
        },
        {
          "indexed": false,
          "internalType": "uint256",
          "name": "timestamp",
          "type": "uint256"
        }
      ],
      "name": "TokenSwapped",
      "type": "event"
    },
    {
      "inputs": [
        {
          "internalType": "string",
          "name": "name",
          "type": "string"
        },
        {
          "internalType": "string",
          "name": "symbol",
          "type": "string"
        },
        {
          "internalType": "uint256",
          "name": "initialSupply",
          "type": "uint256"
        }
      ],
      "name": "createCustomToken",
      "outputs": [],
      "stateMutability": "nonpayable",
      "type": "function"
    },
    {
      "inputs": [
        {
          "internalType": "uint256",
          "name": "",
          "type": "uint256"
        }
      ],
      "name": "createdTokens",
      "outputs": [
        {
          "internalType": "address",
          "name": "tokenAddress",
          "type": "address"
        },
        {
          "internalType": "string",
          "name": "name",
          "type": "string"
        },
        {
          "internalType": "string",
          "name": "symbol",
          "type": "string"
        },
        {
          "internalType": "uint256",
          "name": "totalSupply",
          "type": "uint256"
        }
      ],
      "stateMutability": "view",
      "type": "function"
    },
    {
      "inputs": [],
      "name": "getCreatedTokensCount",
      "outputs": [
        {
          "internalType": "uint256",
          "name": "",
          "type": "uint256"
        }
      ],
      "stateMutability": "view",
      "type": "function"
    },
    {
      "inputs": [],
      "name": "getEthBalance",
      "outputs": [
        {
          "internalType": "uint256",
          "name": "",
          "type": "uint256"
        }
      ],
      "stateMutability": "view",
      "type": "function"
    },
    {
      "inputs": [
        {
          "internalType": "string",
          "name": "tokenName",
          "type": "string"
        },
        {
          "internalType": "address",
          "name": "user_address",
          "type": "address"
        }
      ],
      "name": "getTokenBalance",
      "outputs": [
        {
          "internalType": "uint256",
          "name": "",
          "type": "uint256"
        }
      ],
      "stateMutability": "view",
      "type": "function"
    },
    {
      "inputs": [
        {
          "internalType": "string",
          "name": "tokenName",
          "type": "string"
        }
      ],
      "name": "getTokenDetailsByName",
      "outputs": [
        {
          "internalType": "address",
          "name": "tokenAddress",
          "type": "address"
        },
        {
          "internalType": "string",
          "name": "name",
          "type": "string"
        },
        {
          "internalType": "string",
          "name": "symbol",
          "type": "string"
        },
        {
          "internalType": "uint256",
          "name": "totalSupply",
          "type": "uint256"
        }
      ],
      "stateMutability": "view",
      "type": "function"
    },
    {
      "inputs": [
        {
          "internalType": "string",
          "name": "tokenName",
          "type": "string"
        }
      ],
      "name": "swapEthToToken",
      "outputs": [],
      "stateMutability": "payable",
      "type": "function"
    },
    {
      "inputs": [
        {
          "internalType": "string",
          "name": "tokenName",
          "type": "string"
        },
        {
          "internalType": "uint256",
          "name": "tokenamout",
          "type": "uint256"
        }
      ],
      "name": "swapTokenToEth",
      "outputs": [],
      "stateMutability": "payable",
      "type": "function"
    }
  ],
  "bytecode": "0x6080604052670de0b6b3a764000060005534801561001c57600080fd5b5033600160006101000a81548173ffffffffffffffffffffffffffffffffffffffff021916908373ffffffffffffffffffffffffffffffffffffffff16021790555061407d8061006d6000396000f3fe608060405260043610620000865760003560e01c8063c3fd560a1162000055578063c3fd560a146200014d578063d782d6471462000194578063db6f63ee14620001db578063ea38ee2914620001fb5762000086565b8063184fa86f146200008b5780633cdb976214620000b957806363fcf7c514620000fd57806370ed0ada146200011d575b600080fd5b3480156200009857600080fd5b50620000b76004803603810190620000b191906200185b565b6200022b565b005b348015620000c657600080fd5b50620000e56004803603810190620000df91906200195a565b62000428565b604051620000f49190620019d1565b60405180910390f35b6200011b6004803603810190620001159190620019ee565b620007af565b005b3480156200012a57600080fd5b506200013562000c4b565b604051620001449190620019d1565b60405180910390f35b3480156200015a57600080fd5b50620001796004803603810190620001739190620019ee565b62000c53565b6040516200018b949392919062001ad9565b60405180910390f35b348015620001a157600080fd5b50620001c06004803603810190620001ba919062001b34565b62000fb2565b604051620001d2949392919062001ad9565b60405180910390f35b620001f96004803603810190620001f3919062001b66565b62001133565b005b3480156200020857600080fd5b506200021362001598565b604051620002229190620019d1565b60405180910390f35b600160009054906101000a900473ffffffffffffffffffffffffffffffffffffffff1673ffffffffffffffffffffffffffffffffffffffff163373ffffffffffffffffffffffffffffffffffffffff1614620002be576040517f08c379a0000000000000000000000000000000000000000000000000000000008152600401620002b59062001c42565b60405180910390fd5b6000838383604051620002d19062001690565b620002df9392919062001c64565b604051809103906000f080158015620002fc573d6000803e3d6000fd5b509050600060405180608001604052808373ffffffffffffffffffffffffffffffffffffffff168152602001868152602001858152602001848152509050600281908060018154018082558091505060019003906000526020600020906004020160009091909190915060008201518160000160006101000a81548173ffffffffffffffffffffffffffffffffffffffff021916908373ffffffffffffffffffffffffffffffffffffffff1602179055506020820151816001019081620003c4919062001ee5565b506040820151816002019081620003dc919062001ee5565b506060820151816003015550506001600280549050620003fd919062001ffb565b6003866040516200040f919062002078565b9081526020016040518091039020819055505050505050565b6000806003846040516200043d919062002078565b9081526020016040518091039020549050600280549050811062000498576040517f08c379a00000000000000000000000000000000000000000000000000000000081526004016200048f90620020e1565b60405180910390fd5b83604051602001620004ab919062002078565b6040516020818303038152906040528051906020012060028281548110620004d857620004d762002103565b5b9060005260206000209060040201600101604051602001620004fb9190620021c1565b604051602081830303815290604052805190602001201462000554576040517f08c379a00000000000000000000000000000000000000000000000000000000081526004016200054b906200222a565b60405180910390fd5b6000600282815481106200056d576200056c62002103565b5b90600052602060002090600402016040518060800160405290816000820160009054906101000a900473ffffffffffffffffffffffffffffffffffffffff1673ffffffffffffffffffffffffffffffffffffffff1673ffffffffffffffffffffffffffffffffffffffff168152602001600182018054620005ee9062001cde565b80601f01602080910402602001604051908101604052809291908181526020018280546200061c9062001cde565b80156200066d5780601f1062000641576101008083540402835291602001916200066d565b820191906000526020600020905b8154815290600101906020018083116200064f57829003601f168201915b50505050508152602001600282018054620006889062001cde565b80601f0160208091040260200160405190810160405280929190818152602001828054620006b69062001cde565b8015620007075780601f10620006db5761010080835404028352916020019162000707565b820191906000526020600020905b815481529060010190602001808311620006e957829003601f168201915b5050505050815260200160038201548152505090506000816000015190508073ffffffffffffffffffffffffffffffffffffffff166370a08231866040518263ffffffff1660e01b81526004016200076091906200224c565b602060405180830381865afa1580156200077e573d6000803e3d6000fd5b505050506040513d601f19601f82011682018060405250810190620007a4919062002280565b935050505092915050565b6000600382604051620007c3919062002078565b908152602001604051809103902054905060028054905081106200081e576040517f08c379a00000000000000000000000000000000000000000000000000000000081526004016200081590620020e1565b60405180910390fd5b8160405160200162000831919062002078565b60405160208183030381529060405280519060200120600282815481106200085e576200085d62002103565b5b9060005260206000209060040201600101604051602001620008819190620021c1565b6040516020818303038152906040528051906020012014620008da576040517f08c379a0000000000000000000000000000000000000000000000000000000008152600401620008d1906200222a565b60405180910390fd5b600060028281548110620008f357620008f262002103565b5b906000526020600020906004020190506000341162000949576040517f08c379a0000000000000000000000000000000000000000000000000000000008152600401620009409062002328565b60405180910390fd5b60008160000160009054906101000a900473ffffffffffffffffffffffffffffffffffffffff1690506000819050620009ba6040518060400160405280601d81526020017f657468546f546f6b656e436f6e76657273696f6e526174653d3d3d3d3d000000815250600054620015a5565b620009fb6040518060400160405280601681526020017f457468657220416d6f756e742d2d2d2d2d2d2d2d2d2d0000000000000000000081525034620015a5565b600080543462000a0c919062002379565b905062000a4f6040518060400160405280601681526020017f546f6b656e20416d6f756e742d2d2d2d2d2d2d2d2d2d0000000000000000000081525082620015a5565b808273ffffffffffffffffffffffffffffffffffffffff166370a08231306040518263ffffffff1660e01b815260040162000a8b91906200224c565b602060405180830381865afa15801562000aa9573d6000803e3d6000fd5b505050506040513d601f19601f8201168201806040525081019062000acf919062002280565b101562000b13576040517f08c379a000000000000000000000000000000000000000000000000000000000815260040162000b0a9062002427565b60405180910390fd5b8173ffffffffffffffffffffffffffffffffffffffff1663a9059cbb33836040518363ffffffff1660e01b815260040162000b5092919062002449565b6020604051808303816000875af115801562000b70573d6000803e3d6000fd5b505050506040513d601f19601f8201168201806040525081019062000b969190620024b3565b62000bd8576040517f08c379a000000000000000000000000000000000000000000000000000000000815260040162000bcf9062002535565b60405180910390fd5b8273ffffffffffffffffffffffffffffffffffffffff163373ffffffffffffffffffffffffffffffffffffffff167faa0ff4c78f422674913eb3167bd8a69b980cbced1731cf9bf926dc08a610630634844260405162000c3b9392919062002557565b60405180910390a3505050505050565b600047905090565b600060608060008060038660405162000c6d919062002078565b908152602001604051809103902054905062000cbf6040518060400160405280601181526020017f746f6b656e20696e6465783d3d3d3d3d3d00000000000000000000000000000081525082620015a5565b600280549050811062000d09576040517f08c379a000000000000000000000000000000000000000000000000000000000815260040162000d00906200222a565b60405180910390fd5b8560405160200162000d1c919062002078565b604051602081830303815290604052805190602001206002828154811062000d495762000d4862002103565b5b906000526020600020906004020160010160405160200162000d6c9190620021c1565b604051602081830303815290604052805190602001201462000dc5576040517f08c379a000000000000000000000000000000000000000000000000000000000815260040162000dbc906200222a565b60405180910390fd5b60006002828154811062000dde5762000ddd62002103565b5b90600052602060002090600402016040518060800160405290816000820160009054906101000a900473ffffffffffffffffffffffffffffffffffffffff1673ffffffffffffffffffffffffffffffffffffffff1673ffffffffffffffffffffffffffffffffffffffff16815260200160018201805462000e5f9062001cde565b80601f016020809104026020016040519081016040528092919081815260200182805462000e8d9062001cde565b801562000ede5780601f1062000eb25761010080835404028352916020019162000ede565b820191906000526020600020905b81548152906001019060200180831162000ec057829003601f168201915b5050505050815260200160028201805462000ef99062001cde565b80601f016020809104026020016040519081016040528092919081815260200182805462000f279062001cde565b801562000f785780601f1062000f4c5761010080835404028352916020019162000f78565b820191906000526020600020905b81548152906001019060200180831162000f5a57829003601f168201915b5050505050815260200160038201548152505090508060000151816020015182604001518360600151955095509550955050509193509193565b6002818154811062000fc357600080fd5b90600052602060002090600402016000915090508060000160009054906101000a900473ffffffffffffffffffffffffffffffffffffffff16908060010180546200100e9062001cde565b80601f01602080910402602001604051908101604052809291908181526020018280546200103c9062001cde565b80156200108d5780601f1062001061576101008083540402835291602001916200108d565b820191906000526020600020905b8154815290600101906020018083116200106f57829003601f168201915b505050505090806002018054620010a49062001cde565b80601f0160208091040260200160405190810160405280929190818152602001828054620010d29062001cde565b8015620011235780601f10620010f75761010080835404028352916020019162001123565b820191906000526020600020905b8154815290600101906020018083116200110557829003601f168201915b5050505050908060030154905084565b600060038360405162001147919062002078565b90815260200160405180910390205490506002805490508110620011a2576040517f08c379a00000000000000000000000000000000000000000000000000000000081526004016200119990620020e1565b60405180910390fd5b82604051602001620011b5919062002078565b6040516020818303038152906040528051906020012060028281548110620011e257620011e162002103565b5b9060005260206000209060040201600101604051602001620012059190620021c1565b60405160208183030381529060405280519060200120146200125e576040517f08c379a00000000000000000000000000000000000000000000000000000000081526004016200125590620025e4565b60405180910390fd5b60006002828154811062001277576200127662002103565b5b9060005260206000209060040201905060008311620012cd576040517f08c379a0000000000000000000000000000000000000000000000000000000008152600401620012c4906200267c565b60405180910390fd5b60008160000160009054906101000a900473ffffffffffffffffffffffffffffffffffffffff169050600081905060008054866200130c91906200269e565b90506200134f6040518060400160405280601381526020017f546f6b656e20416d6f756e742d2d2d2d2d2d2d0000000000000000000000000081525087620015a5565b620013906040518060400160405280601181526020017f657468657220616d6f756e743d3d3d3d3d00000000000000000000000000000081525082620015a5565b620013d16040518060400160405280601981526020017f746f6b656e2042616c616e6365656565652d2d2d2d2d2d2d2d0000000000000081525047620015a5565b8047101562001417576040517f08c379a00000000000000000000000000000000000000000000000000000000081526004016200140e906200275f565b60405180910390fd5b8173ffffffffffffffffffffffffffffffffffffffff1663a9059cbb33886040518363ffffffff1660e01b81526004016200145492919062002449565b6020604051808303816000875af115801562001474573d6000803e3d6000fd5b505050506040513d601f19601f820116820180604052508101906200149a9190620024b3565b620014dc576040517f08c379a0000000000000000000000000000000000000000000000000000000008152600401620014d39062002535565b60405180910390fd5b3373ffffffffffffffffffffffffffffffffffffffff166108fc829081150290604051600060405180830381858888f1935050505015801562001523573d6000803e3d6000fd5b508273ffffffffffffffffffffffffffffffffffffffff163373ffffffffffffffffffffffffffffffffffffffff167faa0ff4c78f422674913eb3167bd8a69b980cbced1731cf9bf926dc08a6106306888442604051620015879392919062002557565b60405180910390a350505050505050565b6000600280549050905090565b620016418282604051602401620015be92919062002781565b6040516020818303038152906040527fb60e72cc000000000000000000000000000000000000000000000000000000007bffffffffffffffffffffffffffffffffffffffffffffffffffffffff19166020820180517bffffffffffffffffffffffffffffffffffffffffffffffffffffffff838183161783525050505062001645565b5050565b6200166081620016586200166362001684565b63ffffffff16565b50565b60006a636f6e736f6c652e6c6f679050600080835160208501845afa505050565b6200169e819050919050565b61186380620027e583390190565b620016a8620027b5565b565b6000604051905090565b600080fd5b600080fd5b600080fd5b600080fd5b6000601f19601f8301169050919050565b7f4e487b7100000000000000000000000000000000000000000000000000000000600052604160045260246000fd5b6200171382620016c8565b810181811067ffffffffffffffff82111715620017355762001734620016d9565b5b80604052505050565b60006200174a620016aa565b905062001758828262001708565b919050565b600067ffffffffffffffff8211156200177b576200177a620016d9565b5b6200178682620016c8565b9050602081019050919050565b82818337600083830152505050565b6000620017b9620017b3846200175d565b6200173e565b905082815260208101848484011115620017d857620017d7620016c3565b5b620017e584828562001793565b509392505050565b600082601f830112620018055762001804620016be565b5b813562001817848260208601620017a2565b91505092915050565b6000819050919050565b620018358162001820565b81146200184157600080fd5b50565b60008135905062001855816200182a565b92915050565b600080600060608486031215620018775762001876620016b4565b5b600084013567ffffffffffffffff811115620018985762001897620016b9565b5b620018a686828701620017ed565b935050602084013567ffffffffffffffff811115620018ca57620018c9620016b9565b5b620018d886828701620017ed565b9250506040620018eb8682870162001844565b9150509250925092565b600073ffffffffffffffffffffffffffffffffffffffff82169050919050565b60006200192282620018f5565b9050919050565b620019348162001915565b81146200194057600080fd5b50565b600081359050620019548162001929565b92915050565b60008060408385031215620019745762001973620016b4565b5b600083013567ffffffffffffffff811115620019955762001994620016b9565b5b620019a385828601620017ed565b9250506020620019b68582860162001943565b9150509250929050565b620019cb8162001820565b82525050565b6000602082019050620019e86000830184620019c0565b92915050565b60006020828403121562001a075762001a06620016b4565b5b600082013567ffffffffffffffff81111562001a285762001a27620016b9565b5b62001a3684828501620017ed565b91505092915050565b62001a4a8162001915565b82525050565b600081519050919050565b600082825260208201905092915050565b60005b8381101562001a8c57808201518184015260208101905062001a6f565b60008484015250505050565b600062001aa58262001a50565b62001ab1818562001a5b565b935062001ac381856020860162001a6c565b62001ace81620016c8565b840191505092915050565b600060808201905062001af0600083018762001a3f565b818103602083015262001b04818662001a98565b9050818103604083015262001b1a818562001a98565b905062001b2b6060830184620019c0565b95945050505050565b60006020828403121562001b4d5762001b4c620016b4565b5b600062001b5d8482850162001844565b91505092915050565b6000806040838503121562001b805762001b7f620016b4565b5b600083013567ffffffffffffffff81111562001ba15762001ba0620016b9565b5b62001baf85828601620017ed565b925050602062001bc28582860162001844565b9150509250929050565b7f4f6e6c7920746865206f776e65722063616e20706572666f726d20746869732060008201527f6f7065726174696f6e0000000000000000000000000000000000000000000000602082015250565b600062001c2a60298362001a5b565b915062001c378262001bcc565b604082019050919050565b6000602082019050818103600083015262001c5d8162001c1b565b9050919050565b6000606082019050818103600083015262001c80818662001a98565b9050818103602083015262001c96818562001a98565b905062001ca76040830184620019c0565b949350505050565b7f4e487b7100000000000000000000000000000000000000000000000000000000600052602260045260246000fd5b6000600282049050600182168062001cf757607f821691505b60208210810362001d0d5762001d0c62001caf565b5b50919050565b60008190508160005260206000209050919050565b60006020601f8301049050919050565b600082821b905092915050565b60006008830262001d777fffffffffffffffffffffffffffffffffffffffffffffffffffffffffffffffff8262001d38565b62001d83868362001d38565b95508019841693508086168417925050509392505050565b6000819050919050565b600062001dc662001dc062001dba8462001820565b62001d9b565b62001820565b9050919050565b6000819050919050565b62001de28362001da5565b62001dfa62001df18262001dcd565b84845462001d45565b825550505050565b600090565b62001e1162001e02565b62001e1e81848462001dd7565b505050565b5b8181101562001e465762001e3a60008262001e07565b60018101905062001e24565b5050565b601f82111562001e955762001e5f8162001d13565b62001e6a8462001d28565b8101602085101562001e7a578190505b62001e9262001e898562001d28565b83018262001e23565b50505b505050565b600082821c905092915050565b600062001eba6000198460080262001e9a565b1980831691505092915050565b600062001ed5838362001ea7565b9150826002028217905092915050565b62001ef08262001a50565b67ffffffffffffffff81111562001f0c5762001f0b620016d9565b5b62001f18825462001cde565b62001f2582828562001e4a565b600060209050601f83116001811462001f5d576000841562001f48578287015190505b62001f54858262001ec7565b86555062001fc4565b601f19841662001f6d8662001d13565b60005b8281101562001f975784890151825560018201915060208501945060208101905062001f70565b8683101562001fb7578489015162001fb3601f89168262001ea7565b8355505b6001600288020188555050505b505050505050565b7f4e487b7100000000000000000000000000000000000000000000000000000000600052601160045260246000fd5b6000620020088262001820565b9150620020158362001820565b925082820390508181111562002030576200202f62001fcc565b5b92915050565b600081905092915050565b60006200204e8262001a50565b6200205a818562002036565b93506200206c81856020860162001a6c565b80840191505092915050565b600062002086828462002041565b915081905092915050565b7f546f6b656e20696e646578206f7574206f662072616e67650000000000000000600082015250565b6000620020c960188362001a5b565b9150620020d68262002091565b602082019050919050565b60006020820190508181036000830152620020fc81620020ba565b9050919050565b7f4e487b7100000000000000000000000000000000000000000000000000000000600052603260045260246000fd5b60008154620021418162001cde565b6200214d818662002036565b945060018216600081146200216b57600181146200218157620021b8565b60ff1983168652811515820286019350620021b8565b6200218c8562001d13565b60005b83811015620021b0578154818901526001820191506020810190506200218f565b838801955050505b50505092915050565b6000620021cf828462002132565b915081905092915050565b7f546f6b656e206e6f7420666f756e640000000000000000000000000000000000600082015250565b600062002212600f8362001a5b565b91506200221f82620021da565b602082019050919050565b60006020820190508181036000830152620022458162002203565b9050919050565b600060208201905062002263600083018462001a3f565b92915050565b6000815190506200227a816200182a565b92915050565b600060208284031215620022995762002298620016b4565b5b6000620022a98482850162002269565b91505092915050565b7f4d7573742073656e6420457468657220746f20706572666f726d20746865207360008201527f7761700000000000000000000000000000000000000000000000000000000000602082015250565b60006200231060238362001a5b565b91506200231d82620022b2565b604082019050919050565b60006020820190508181036000830152620023438162002301565b9050919050565b7f4e487b7100000000000000000000000000000000000000000000000000000000600052601260045260246000fd5b6000620023868262001820565b9150620023938362001820565b925082620023a657620023a56200234a565b5b828204905092915050565b7f5377617020636f6e74726163742068617320696e73756666696369656e74207460008201527f6f6b656e2062616c616e63650000000000000000000000000000000000000000602082015250565b60006200240f602c8362001a5b565b91506200241c82620023b1565b604082019050919050565b60006020820190508181036000830152620024428162002400565b9050919050565b600060408201905062002460600083018562001a3f565b6200246f6020830184620019c0565b9392505050565b60008115159050919050565b6200248d8162002476565b81146200249957600080fd5b50565b600081519050620024ad8162002482565b92915050565b600060208284031215620024cc57620024cb620016b4565b5b6000620024dc848285016200249c565b91505092915050565b7f546f6b656e207472616e73666572206661696c65640000000000000000000000600082015250565b60006200251d60158362001a5b565b91506200252a82620024e5565b602082019050919050565b6000602082019050818103600083015262002550816200250e565b9050919050565b60006060820190506200256e6000830186620019c0565b6200257d6020830185620019c0565b6200258c6040830184620019c0565b949350505050565b7f546f6b656e206e6f7420466f756e640000000000000000000000000000000000600082015250565b6000620025cc600f8362001a5b565b9150620025d98262002594565b602082019050919050565b60006020820190508181036000830152620025ff81620025bd565b9050919050565b7f546f6b656e20616d6f756e74206d75737420626520677261746572207468656e60008201527f2030000000000000000000000000000000000000000000000000000000000000602082015250565b60006200266460228362001a5b565b9150620026718262002606565b604082019050919050565b60006020820190508181036000830152620026978162002655565b9050919050565b6000620026ab8262001820565b9150620026b88362001820565b9250828202620026c88162001820565b91508282048414831517620026e257620026e162001fcc565b5b5092915050565b7f5377617020636f6e74726163742068617320696e63756666696369656e74206560008201527f746865722062616c616e63650000000000000000000000000000000000000000602082015250565b600062002747602c8362001a5b565b91506200275482620026e9565b604082019050919050565b600060208201905081810360008301526200277a8162002738565b9050919050565b600060408201905081810360008301526200279d818562001a98565b9050620027ae6020830184620019c0565b9392505050565b7f4e487b7100000000000000000000000000000000000000000000000000000000600052605160045260246000fdfe60806040523480156200001157600080fd5b506040516200186338038062001863833981810160405281019062000037919062000505565b828281600390816200004a9190620007e0565b5080600490816200005c9190620007e0565b5050506200007133826200007a60201b60201c565b505050620009fe565b600073ffffffffffffffffffffffffffffffffffffffff168273ffffffffffffffffffffffffffffffffffffffff1603620000ef5760006040517fec442f05000000000000000000000000000000000000000000000000000000008152600401620000e691906200090c565b60405180910390fd5b62000103600083836200010760201b60201c565b5050565b600073ffffffffffffffffffffffffffffffffffffffff168373ffffffffffffffffffffffffffffffffffffffff16036200015d57806002600082825462000150919062000958565b9250508190555062000233565b60008060008573ffffffffffffffffffffffffffffffffffffffff1673ffffffffffffffffffffffffffffffffffffffff16815260200190815260200160002054905081811015620001ec578381836040517fe450d38c000000000000000000000000000000000000000000000000000000008152600401620001e393929190620009a4565b60405180910390fd5b8181036000808673ffffffffffffffffffffffffffffffffffffffff1673ffffffffffffffffffffffffffffffffffffffff16815260200190815260200160002081905550505b600073ffffffffffffffffffffffffffffffffffffffff168273ffffffffffffffffffffffffffffffffffffffff16036200027e5780600260008282540392505081905550620002cb565b806000808473ffffffffffffffffffffffffffffffffffffffff1673ffffffffffffffffffffffffffffffffffffffff168152602001908152602001600020600082825401925050819055505b8173ffffffffffffffffffffffffffffffffffffffff168373ffffffffffffffffffffffffffffffffffffffff167fddf252ad1be2c89b69c2b068fc378daa952ba7f163c4a11628f55a4df523b3ef836040516200032a9190620009e1565b60405180910390a3505050565b6000604051905090565b600080fd5b600080fd5b600080fd5b600080fd5b6000601f19601f8301169050919050565b7f4e487b7100000000000000000000000000000000000000000000000000000000600052604160045260246000fd5b620003a08262000355565b810181811067ffffffffffffffff82111715620003c257620003c162000366565b5b80604052505050565b6000620003d762000337565b9050620003e5828262000395565b919050565b600067ffffffffffffffff82111562000408576200040762000366565b5b620004138262000355565b9050602081019050919050565b60005b838110156200044057808201518184015260208101905062000423565b60008484015250505050565b6000620004636200045d84620003ea565b620003cb565b90508281526020810184848401111562000482576200048162000350565b5b6200048f84828562000420565b509392505050565b600082601f830112620004af57620004ae6200034b565b5b8151620004c18482602086016200044c565b91505092915050565b6000819050919050565b620004df81620004ca565b8114620004eb57600080fd5b50565b600081519050620004ff81620004d4565b92915050565b60008060006060848603121562000521576200052062000341565b5b600084015167ffffffffffffffff81111562000542576200054162000346565b5b620005508682870162000497565b935050602084015167ffffffffffffffff81111562000574576200057362000346565b5b620005828682870162000497565b92505060406200059586828701620004ee565b9150509250925092565b600081519050919050565b7f4e487b7100000000000000000000000000000000000000000000000000000000600052602260045260246000fd5b60006002820490506001821680620005f257607f821691505b602082108103620006085762000607620005aa565b5b50919050565b60008190508160005260206000209050919050565b60006020601f8301049050919050565b600082821b905092915050565b600060088302620006727fffffffffffffffffffffffffffffffffffffffffffffffffffffffffffffffff8262000633565b6200067e868362000633565b95508019841693508086168417925050509392505050565b6000819050919050565b6000620006c1620006bb620006b584620004ca565b62000696565b620004ca565b9050919050565b6000819050919050565b620006dd83620006a0565b620006f5620006ec82620006c8565b84845462000640565b825550505050565b600090565b6200070c620006fd565b62000719818484620006d2565b505050565b5b8181101562000741576200073560008262000702565b6001810190506200071f565b5050565b601f82111562000790576200075a816200060e565b620007658462000623565b8101602085101562000775578190505b6200078d620007848562000623565b8301826200071e565b50505b505050565b600082821c905092915050565b6000620007b56000198460080262000795565b1980831691505092915050565b6000620007d08383620007a2565b9150826002028217905092915050565b620007eb826200059f565b67ffffffffffffffff81111562000807576200080662000366565b5b620008138254620005d9565b6200082082828562000745565b600060209050601f83116001811462000858576000841562000843578287015190505b6200084f8582620007c2565b865550620008bf565b601f19841662000868866200060e565b60005b8281101562000892578489015182556001820191506020850194506020810190506200086b565b86831015620008b25784890151620008ae601f891682620007a2565b8355505b6001600288020188555050505b505050505050565b600073ffffffffffffffffffffffffffffffffffffffff82169050919050565b6000620008f482620008c7565b9050919050565b6200090681620008e7565b82525050565b6000602082019050620009236000830184620008fb565b92915050565b7f4e487b7100000000000000000000000000000000000000000000000000000000600052601160045260246000fd5b60006200096582620004ca565b91506200097283620004ca565b92508282019050808211156200098d576200098c62000929565b5b92915050565b6200099e81620004ca565b82525050565b6000606082019050620009bb6000830186620008fb565b620009ca602083018562000993565b620009d9604083018462000993565b949350505050565b6000602082019050620009f8600083018462000993565b92915050565b610e558062000a0e6000396000f3fe608060405234801561001057600080fd5b50600436106100935760003560e01c8063313ce56711610066578063313ce5671461013457806370a082311461015257806395d89b4114610182578063a9059cbb146101a0578063dd62ed3e146101d057610093565b806306fdde0314610098578063095ea7b3146100b657806318160ddd146100e657806323b872dd14610104575b600080fd5b6100a0610200565b6040516100ad9190610aa9565b60405180910390f35b6100d060048036038101906100cb9190610b64565b610292565b6040516100dd9190610bbf565b60405180910390f35b6100ee6102b5565b6040516100fb9190610be9565b60405180910390f35b61011e60048036038101906101199190610c04565b6102bf565b60405161012b9190610bbf565b60405180910390f35b61013c6102ee565b6040516101499190610c73565b60405180910390f35b61016c60048036038101906101679190610c8e565b6102f7565b6040516101799190610be9565b60405180910390f35b61018a61033f565b6040516101979190610aa9565b60405180910390f35b6101ba60048036038101906101b59190610b64565b6103d1565b6040516101c79190610bbf565b60405180910390f35b6101ea60048036038101906101e59190610cbb565b6103f4565b6040516101f79190610be9565b60405180910390f35b60606003805461020f90610d2a565b80601f016020809104026020016040519081016040528092919081815260200182805461023b90610d2a565b80156102885780601f1061025d57610100808354040283529160200191610288565b820191906000526020600020905b81548152906001019060200180831161026b57829003601f168201915b5050505050905090565b60008061029d61047b565b90506102aa818585610483565b600191505092915050565b6000600254905090565b6000806102ca61047b565b90506102d7858285610495565b6102e2858585610529565b60019150509392505050565b60006012905090565b60008060008373ffffffffffffffffffffffffffffffffffffffff1673ffffffffffffffffffffffffffffffffffffffff168152602001908152602001600020549050919050565b60606004805461034e90610d2a565b80601f016020809104026020016040519081016040528092919081815260200182805461037a90610d2a565b80156103c75780601f1061039c576101008083540402835291602001916103c7565b820191906000526020600020905b8154815290600101906020018083116103aa57829003601f168201915b5050505050905090565b6000806103dc61047b565b90506103e9818585610529565b600191505092915050565b6000600160008473ffffffffffffffffffffffffffffffffffffffff1673ffffffffffffffffffffffffffffffffffffffff16815260200190815260200160002060008373ffffffffffffffffffffffffffffffffffffffff1673ffffffffffffffffffffffffffffffffffffffff16815260200190815260200160002054905092915050565b600033905090565b610490838383600161061d565b505050565b60006104a184846103f4565b90507fffffffffffffffffffffffffffffffffffffffffffffffffffffffffffffffff81146105235781811015610513578281836040517ffb8f41b200000000000000000000000000000000000000000000000000000000815260040161050a93929190610d6a565b60405180910390fd5b6105228484848403600061061d565b5b50505050565b600073ffffffffffffffffffffffffffffffffffffffff168373ffffffffffffffffffffffffffffffffffffffff160361059b5760006040517f96c6fd1e0000000000000000000000000000000000000000000000000000000081526004016105929190610da1565b60405180910390fd5b600073ffffffffffffffffffffffffffffffffffffffff168273ffffffffffffffffffffffffffffffffffffffff160361060d5760006040517fec442f050000000000000000000000000000000000000000000000000000000081526004016106049190610da1565b60405180910390fd5b6106188383836107f4565b505050565b600073ffffffffffffffffffffffffffffffffffffffff168473ffffffffffffffffffffffffffffffffffffffff160361068f5760006040517fe602df050000000000000000000000000000000000000000000000000000000081526004016106869190610da1565b60405180910390fd5b600073ffffffffffffffffffffffffffffffffffffffff168373ffffffffffffffffffffffffffffffffffffffff16036107015760006040517f94280d620000000000000000000000000000000000000000000000000000000081526004016106f89190610da1565b60405180910390fd5b81600160008673ffffffffffffffffffffffffffffffffffffffff1673ffffffffffffffffffffffffffffffffffffffff16815260200190815260200160002060008573ffffffffffffffffffffffffffffffffffffffff1673ffffffffffffffffffffffffffffffffffffffff1681526020019081526020016000208190555080156107ee578273ffffffffffffffffffffffffffffffffffffffff168473ffffffffffffffffffffffffffffffffffffffff167f8c5be1e5ebec7d5bd14f71427d1e84f3dd0314c0f7b2291e5b200ac8c7c3b925846040516107e59190610be9565b60405180910390a35b50505050565b600073ffffffffffffffffffffffffffffffffffffffff168373ffffffffffffffffffffffffffffffffffffffff160361084657806002600082825461083a9190610deb565b92505081905550610919565b60008060008573ffffffffffffffffffffffffffffffffffffffff1673ffffffffffffffffffffffffffffffffffffffff168152602001908152602001600020549050818110156108d2578381836040517fe450d38c0000000000000000000000000000000000000000000000000000000081526004016108c993929190610d6a565b60405180910390fd5b8181036000808673ffffffffffffffffffffffffffffffffffffffff1673ffffffffffffffffffffffffffffffffffffffff16815260200190815260200160002081905550505b600073ffffffffffffffffffffffffffffffffffffffff168273ffffffffffffffffffffffffffffffffffffffff160361096257806002600082825403925050819055506109af565b806000808473ffffffffffffffffffffffffffffffffffffffff1673ffffffffffffffffffffffffffffffffffffffff168152602001908152602001600020600082825401925050819055505b8173ffffffffffffffffffffffffffffffffffffffff168373ffffffffffffffffffffffffffffffffffffffff167fddf252ad1be2c89b69c2b068fc378daa952ba7f163c4a11628f55a4df523b3ef83604051610a0c9190610be9565b60405180910390a3505050565b600081519050919050565b600082825260208201905092915050565b60005b83811015610a53578082015181840152602081019050610a38565b60008484015250505050565b6000601f19601f8301169050919050565b6000610a7b82610a19565b610a858185610a24565b9350610a95818560208601610a35565b610a9e81610a5f565b840191505092915050565b60006020820190508181036000830152610ac38184610a70565b905092915050565b600080fd5b600073ffffffffffffffffffffffffffffffffffffffff82169050919050565b6000610afb82610ad0565b9050919050565b610b0b81610af0565b8114610b1657600080fd5b50565b600081359050610b2881610b02565b92915050565b6000819050919050565b610b4181610b2e565b8114610b4c57600080fd5b50565b600081359050610b5e81610b38565b92915050565b60008060408385031215610b7b57610b7a610acb565b5b6000610b8985828601610b19565b9250506020610b9a85828601610b4f565b9150509250929050565b60008115159050919050565b610bb981610ba4565b82525050565b6000602082019050610bd46000830184610bb0565b92915050565b610be381610b2e565b82525050565b6000602082019050610bfe6000830184610bda565b92915050565b600080600060608486031215610c1d57610c1c610acb565b5b6000610c2b86828701610b19565b9350506020610c3c86828701610b19565b9250506040610c4d86828701610b4f565b9150509250925092565b600060ff82169050919050565b610c6d81610c57565b82525050565b6000602082019050610c886000830184610c64565b92915050565b600060208284031215610ca457610ca3610acb565b5b6000610cb284828501610b19565b91505092915050565b60008060408385031215610cd257610cd1610acb565b5b6000610ce085828601610b19565b9250506020610cf185828601610b19565b9150509250929050565b7f4e487b7100000000000000000000000000000000000000000000000000000000600052602260045260246000fd5b60006002820490506001821680610d4257607f821691505b602082108103610d5557610d54610cfb565b5b50919050565b610d6481610af0565b82525050565b6000606082019050610d7f6000830186610d5b565b610d8c6020830185610bda565b610d996040830184610bda565b949350505050565b6000602082019050610db66000830184610d5b565b92915050565b7f4e487b7100000000000000000000000000000000000000000000000000000000600052601160045260246000fd5b6000610df682610b2e565b9150610e0183610b2e565b9250828201905080821115610e1957610e18610dbc565b5b9291505056fea2646970667358221220fe651002dc18ac703bd1cd69a3db704b22b915f76ef319d5713b2e9cc9dd37f664736f6c63430008140033a2646970667358221220e88a19e76fbd4a413a727e0eddbf4f1874801941aabcb673f843a0224507232764736f6c63430008140033",
  "linkReferences": {},
  "deployedLinkReferences": {}
}