{
  "_format": "hh-sol-artifact-1",
  "contractName": "Swap",
  "sourceName": "contracts/Swap.sol",
  "abi": [
    {
      "inputs": [],
      "stateMutability": "nonpayable",
      "type": "constructor"
    },
    {
      "anonymous": false,
      "inputs": [
        {
          "indexed": true,
          "internalType": "address",
          "name": "sender",
          "type": "address"
        },
        {
          "indexed": true,
          "internalType": "address",
          "name": "tokenAddress",
          "type": "address"
        },
        {
          "indexed": false,
          "internalType": "uint256",
          "name": "inputAmount",
          "type": "uint256"
        },
        {
          "indexed": false,
          "internalType": "uint256",
          "name": "outputAmount",
          "type": "uint256"
        },
        {
          "indexed": false,
          "internalType": "uint256",
          "name": "timestamp",
          "type": "uint256"
        }
      ],
      "name": "TokenSwapped",
      "type": "event"
    },
    {
      "inputs": [
        {
          "internalType": "string",
          "name": "name",
          "type": "string"
        },
        {
          "internalType": "string",
          "name": "symbol",
          "type": "string"
        },
        {
          "internalType": "uint256",
          "name": "initialSupply",
          "type": "uint256"
        },
        {
          "internalType": "uint256",
          "name": "tokenPriceInWei",
          "type": "uint256"
        }
      ],
      "name": "createCustomToken",
      "outputs": [],
      "stateMutability": "nonpayable",
      "type": "function"
    },
    {
      "inputs": [
        {
          "internalType": "uint256",
          "name": "",
          "type": "uint256"
        }
      ],
      "name": "createdTokens",
      "outputs": [
        {
          "internalType": "address",
          "name": "tokenAddress",
          "type": "address"
        },
        {
          "internalType": "string",
          "name": "name",
          "type": "string"
        },
        {
          "internalType": "string",
          "name": "symbol",
          "type": "string"
        },
        {
          "internalType": "uint256",
          "name": "totalSupply",
          "type": "uint256"
        },
        {
          "internalType": "uint256",
          "name": "tokenPrice",
          "type": "uint256"
        }
      ],
      "stateMutability": "view",
      "type": "function"
    },
    {
      "inputs": [],
      "name": "getCreatedTokenDetails",
      "outputs": [
        {
          "components": [
            {
              "internalType": "address",
              "name": "tokenAddress",
              "type": "address"
            },
            {
              "internalType": "string",
              "name": "name",
              "type": "string"
            },
            {
              "internalType": "string",
              "name": "symbol",
              "type": "string"
            },
            {
              "internalType": "uint256",
              "name": "totalSupply",
              "type": "uint256"
            },
            {
              "internalType": "uint256",
              "name": "tokenPrice",
              "type": "uint256"
            }
          ],
          "internalType": "struct Swap.TokenInfo[]",
          "name": "",
          "type": "tuple[]"
        }
      ],
      "stateMutability": "view",
      "type": "function"
    },
    {
      "inputs": [],
      "name": "getCreatedTokensCount",
      "outputs": [
        {
          "internalType": "uint256",
          "name": "",
          "type": "uint256"
        }
      ],
      "stateMutability": "view",
      "type": "function"
    },
    {
      "inputs": [],
      "name": "getEthBalance",
      "outputs": [
        {
          "internalType": "uint256",
          "name": "",
          "type": "uint256"
        }
      ],
      "stateMutability": "view",
      "type": "function"
    },
    {
      "inputs": [
        {
          "internalType": "string",
          "name": "tokenName",
          "type": "string"
        },
        {
          "internalType": "address",
          "name": "user_address",
          "type": "address"
        }
      ],
      "name": "getTokenBalance",
      "outputs": [
        {
          "internalType": "uint256",
          "name": "",
          "type": "uint256"
        }
      ],
      "stateMutability": "view",
      "type": "function"
    },
    {
      "inputs": [
        {
          "internalType": "string",
          "name": "tokenName",
          "type": "string"
        }
      ],
      "name": "getTokenDetailsByName",
      "outputs": [
        {
          "internalType": "address",
          "name": "tokenAddress",
          "type": "address"
        },
        {
          "internalType": "string",
          "name": "name",
          "type": "string"
        },
        {
          "internalType": "string",
          "name": "symbol",
          "type": "string"
        },
        {
          "internalType": "uint256",
          "name": "totalSupply",
          "type": "uint256"
        },
        {
          "internalType": "uint256",
          "name": "tokenPrice",
          "type": "uint256"
        }
      ],
      "stateMutability": "view",
      "type": "function"
    },
    {
      "inputs": [
        {
          "internalType": "string",
          "name": "tokenName",
          "type": "string"
        }
      ],
      "name": "swapEthToToken",
      "outputs": [],
      "stateMutability": "payable",
      "type": "function"
    },
    {
      "inputs": [
        {
          "internalType": "string",
          "name": "tokenName",
          "type": "string"
        },
        {
          "internalType": "uint256",
          "name": "tokenamout",
          "type": "uint256"
        }
      ],
      "name": "swapTokenToEth",
      "outputs": [],
      "stateMutability": "payable",
      "type": "function"
    }
  ],
  "bytecode": "0x608060405234801561001057600080fd5b50336000806101000a81548173ffffffffffffffffffffffffffffffffffffffff021916908373ffffffffffffffffffffffffffffffffffffffff160217905550614bd4806100606000396000f3fe608060405260043610620000925760003560e01c8063b8b755921162000061578063b8b75592146200015b578063c3fd560a1462000189578063d782d64714620001d1578063db6f63ee1462000219578063ea38ee2914620002395762000092565b80633cdb9762146200009757806363fcf7c514620000db57806370ed0ada14620000fb57806393217884146200012b575b600080fd5b348015620000a457600080fd5b50620000c36004803603810190620000bd919062001f19565b62000269565b604051620000d2919062001f9a565b60405180910390f35b620000f96004803603810190620000f3919062001fb7565b620005f2565b005b3480156200010857600080fd5b506200011362000be7565b60405162000122919062001f9a565b60405180910390f35b3480156200013857600080fd5b506200014362000bef565b6040516200015291906200220a565b60405180910390f35b3480156200016857600080fd5b506200018760048036038101906200018191906200225f565b62000ec9565b005b3480156200019657600080fd5b50620001b56004803603810190620001af919062001fb7565b6200116d565b604051620001c895949392919062002372565b60405180910390f35b348015620001de57600080fd5b50620001fd6004803603810190620001f79190620023dd565b620014e1565b6040516200021095949392919062002372565b60405180910390f35b6200023760048036038101906200023191906200240f565b62001668565b005b3480156200024657600080fd5b506200025162001be7565b60405162000260919062001f9a565b60405180910390f35b6000806002846040516200027e9190620024b7565b90815260200160405180910390205490506001805490508110620002d9576040517f08c379a0000000000000000000000000000000000000000000000000000000008152600401620002d09062002520565b60405180910390fd5b83604051602001620002ec9190620024b7565b604051602081830303815290604052805190602001206001828154811062000319576200031862002542565b5b90600052602060002090600502016001016040516020016200033c919062002679565b604051602081830303815290604052805190602001201462000395576040517f08c379a00000000000000000000000000000000000000000000000000000000081526004016200038c90620026e2565b60405180910390fd5b600060018281548110620003ae57620003ad62002542565b5b90600052602060002090600502016040518060a00160405290816000820160009054906101000a900473ffffffffffffffffffffffffffffffffffffffff1673ffffffffffffffffffffffffffffffffffffffff1673ffffffffffffffffffffffffffffffffffffffff1681526020016001820180546200042f90620025a0565b80601f01602080910402602001604051908101604052809291908181526020018280546200045d90620025a0565b8015620004ae5780601f106200048257610100808354040283529160200191620004ae565b820191906000526020600020905b8154815290600101906020018083116200049057829003601f168201915b50505050508152602001600282018054620004c990620025a0565b80601f0160208091040260200160405190810160405280929190818152602001828054620004f790620025a0565b8015620005485780601f106200051c5761010080835404028352916020019162000548565b820191906000526020600020905b8154815290600101906020018083116200052a57829003601f168201915b50505050508152602001600382015481526020016004820154815250509050600360008573ffffffffffffffffffffffffffffffffffffffff1673ffffffffffffffffffffffffffffffffffffffff1681526020019081526020016000206000826000015173ffffffffffffffffffffffffffffffffffffffff1673ffffffffffffffffffffffffffffffffffffffff168152602001908152602001600020549250505092915050565b6000600282604051620006069190620024b7565b9081526020016040518091039020549050600180549050811062000661576040517f08c379a0000000000000000000000000000000000000000000000000000000008152600401620006589062002520565b60405180910390fd5b81604051602001620006749190620024b7565b6040516020818303038152906040528051906020012060018281548110620006a157620006a062002542565b5b9060005260206000209060050201600101604051602001620006c4919062002679565b60405160208183030381529060405280519060200120146200071d576040517f08c379a00000000000000000000000000000000000000000000000000000000081526004016200071490620026e2565b60405180910390fd5b60006001828154811062000736576200073562002542565b5b90600052602060002090600502019050600034116200078c576040517f08c379a000000000000000000000000000000000000000000000000000000000815260040162000783906200277a565b60405180910390fd5b60008160000160009054906101000a900473ffffffffffffffffffffffffffffffffffffffff1690506000819050600083600401549050620008046040518060400160405280600f81526020017f746f6b656e50726963653d3d3d3d3d00000000000000000000000000000000008152508262001bf4565b620008456040518060400160405280601681526020017f457468657220416d6f756e742d2d2d2d2d2d2d2d2d2d000000000000000000008152503462001bf4565b60008134620008559190620027fa565b9050620008986040518060400160405280601681526020017f546f6b656e20416d6f756e742d2d2d2d2d2d2d2d2d2d000000000000000000008152508262001bf4565b808373ffffffffffffffffffffffffffffffffffffffff166370a08231306040518263ffffffff1660e01b8152600401620008d4919062002832565b602060405180830381865afa158015620008f2573d6000803e3d6000fd5b505050506040513d601f19601f8201168201806040525081019062000918919062002866565b10156200095c576040517f08c379a000000000000000000000000000000000000000000000000000000000815260040162000953906200290e565b60405180910390fd5b8273ffffffffffffffffffffffffffffffffffffffff1663a9059cbb33836040518363ffffffff1660e01b81526004016200099992919062002930565b6020604051808303816000875af1158015620009b9573d6000803e3d6000fd5b505050506040513d601f19601f82011682018060405250810190620009df91906200299a565b62000a21576040517f08c379a000000000000000000000000000000000000000000000000000000000815260040162000a189062002a1c565b60405180910390fd5b80600360003373ffffffffffffffffffffffffffffffffffffffff1673ffffffffffffffffffffffffffffffffffffffff16815260200190815260200160002060008673ffffffffffffffffffffffffffffffffffffffff1673ffffffffffffffffffffffffffffffffffffffff168152602001908152602001600020600082825462000aaf919062002a3e565b9250508190555062000b736040518060400160405280601781526020017f7573657220746f6b656e2042616c616e63652d2d2d2d2d000000000000000000815250600360003373ffffffffffffffffffffffffffffffffffffffff1673ffffffffffffffffffffffffffffffffffffffff16815260200190815260200160002060008773ffffffffffffffffffffffffffffffffffffffff1673ffffffffffffffffffffffffffffffffffffffff1681526020019081526020016000205462001bf4565b8373ffffffffffffffffffffffffffffffffffffffff163373ffffffffffffffffffffffffffffffffffffffff167faa0ff4c78f422674913eb3167bd8a69b980cbced1731cf9bf926dc08a610630634844260405162000bd69392919062002a79565b60405180910390a350505050505050565b600047905090565b6060600060018054905067ffffffffffffffff81111562000c155762000c1462001d6d565b5b60405190808252806020026020018201604052801562000c5257816020015b62000c3e62001cdf565b81526020019060019003908162000c345790505b50905060005b60018054905081101562000ec15760006001828154811062000c7f5762000c7e62002542565b5b90600052602060002090600502016040518060a00160405290816000820160009054906101000a900473ffffffffffffffffffffffffffffffffffffffff1673ffffffffffffffffffffffffffffffffffffffff1673ffffffffffffffffffffffffffffffffffffffff16815260200160018201805462000d0090620025a0565b80601f016020809104026020016040519081016040528092919081815260200182805462000d2e90620025a0565b801562000d7f5780601f1062000d535761010080835404028352916020019162000d7f565b820191906000526020600020905b81548152906001019060200180831162000d6157829003601f168201915b5050505050815260200160028201805462000d9a90620025a0565b80601f016020809104026020016040519081016040528092919081815260200182805462000dc890620025a0565b801562000e195780601f1062000ded5761010080835404028352916020019162000e19565b820191906000526020600020905b81548152906001019060200180831162000dfb57829003601f168201915b505050505081526020016003820154815260200160048201548152505090506040518060a00160405280826000015173ffffffffffffffffffffffffffffffffffffffff168152602001826020015181526020018260400151815260200182606001518152602001826080015181525083838151811062000e9f5762000e9e62002542565b5b602002602001018190525050808062000eb89062002ab6565b91505062000c58565b508091505090565b60008054906101000a900473ffffffffffffffffffffffffffffffffffffffff1673ffffffffffffffffffffffffffffffffffffffff163373ffffffffffffffffffffffffffffffffffffffff161462000f5a576040517f08c379a000000000000000000000000000000000000000000000000000000000815260040162000f519062002b79565b60405180910390fd5b600084848460405162000f6d9062001d24565b62000f7b9392919062002b9b565b604051809103906000f08015801562000f98573d6000803e3d6000fd5b50905060006040518060a001604052808373ffffffffffffffffffffffffffffffffffffffff1681526020018781526020018681526020018581526020018481525090508173ffffffffffffffffffffffffffffffffffffffff1663a9059cbb33670de0b6b3a7640000876200100f919062002be6565b6040518363ffffffff1660e01b81526004016200102e92919062002930565b6020604051808303816000875af11580156200104e573d6000803e3d6000fd5b505050506040513d601f19601f820116820180604052508101906200107491906200299a565b50600181908060018154018082558091505060019003906000526020600020906005020160009091909190915060008201518160000160006101000a81548173ffffffffffffffffffffffffffffffffffffffff021916908373ffffffffffffffffffffffffffffffffffffffff1602179055506020820151816001019081620010ff919062002dee565b50604082015181600201908162001117919062002dee565b50606082015181600301556080820151816004015550506001808054905062001141919062002ed5565b600287604051620011539190620024b7565b908152602001604051809103902081905550505050505050565b60006060806000806000600287604051620011899190620024b7565b9081526020016040518091039020549050620011db6040518060400160405280601181526020017f746f6b656e20696e6465783d3d3d3d3d3d0000000000000000000000000000008152508262001bf4565b600180549050811062001225576040517f08c379a00000000000000000000000000000000000000000000000000000000081526004016200121c90620026e2565b60405180910390fd5b86604051602001620012389190620024b7565b604051602081830303815290604052805190602001206001828154811062001265576200126462002542565b5b906000526020600020906005020160010160405160200162001288919062002679565b6040516020818303038152906040528051906020012014620012e1576040517f08c379a0000000000000000000000000000000000000000000000000000000008152600401620012d890620026e2565b60405180910390fd5b600060018281548110620012fa57620012f962002542565b5b90600052602060002090600502016040518060a00160405290816000820160009054906101000a900473ffffffffffffffffffffffffffffffffffffffff1673ffffffffffffffffffffffffffffffffffffffff1673ffffffffffffffffffffffffffffffffffffffff1681526020016001820180546200137b90620025a0565b80601f0160208091040260200160405190810160405280929190818152602001828054620013a990620025a0565b8015620013fa5780601f10620013ce57610100808354040283529160200191620013fa565b820191906000526020600020905b815481529060010190602001808311620013dc57829003601f168201915b505050505081526020016002820180546200141590620025a0565b80601f01602080910402602001604051908101604052809291908181526020018280546200144390620025a0565b8015620014945780601f10620014685761010080835404028352916020019162001494565b820191906000526020600020905b8154815290600101906020018083116200147657829003601f168201915b505050505081526020016003820154815260200160048201548152505090508060000151816020015182604001518360600151846080015196509650965096509650505091939590929450565b60018181548110620014f257600080fd5b90600052602060002090600502016000915090508060000160009054906101000a900473ffffffffffffffffffffffffffffffffffffffff16908060010180546200153d90620025a0565b80601f01602080910402602001604051908101604052809291908181526020018280546200156b90620025a0565b8015620015bc5780601f106200159057610100808354040283529160200191620015bc565b820191906000526020600020905b8154815290600101906020018083116200159e57829003601f168201915b505050505090806002018054620015d390620025a0565b80601f01602080910402602001604051908101604052809291908181526020018280546200160190620025a0565b8015620016525780601f10620016265761010080835404028352916020019162001652565b820191906000526020600020905b8154815290600101906020018083116200163457829003601f168201915b5050505050908060030154908060040154905085565b60006002836040516200167c9190620024b7565b90815260200160405180910390205490506001805490508110620016d7576040517f08c379a0000000000000000000000000000000000000000000000000000000008152600401620016ce9062002520565b60405180910390fd5b82604051602001620016ea9190620024b7565b604051602081830303815290604052805190602001206001828154811062001717576200171662002542565b5b90600052602060002090600502016001016040516020016200173a919062002679565b604051602081830303815290604052805190602001201462001793576040517f08c379a00000000000000000000000000000000000000000000000000000000081526004016200178a9062002f60565b60405180910390fd5b600060018281548110620017ac57620017ab62002542565b5b906000526020600020906005020190506000831162001802576040517f08c379a0000000000000000000000000000000000000000000000000000000008152600401620017f99062002ff8565b60405180910390fd5b60008160000160009054906101000a900473ffffffffffffffffffffffffffffffffffffffff1690506000819050620018716040518060400160405280601381526020017f546f6b656e20416d6f756e742d2d2d2d2d2d2d000000000000000000000000008152508662001bf4565b600083600401549050600081876200188a919062002be6565b9050620018cd6040518060400160405280601181526020017f657468657220616d6f756e743d3d3d3d3d0000000000000000000000000000008152508262001bf4565b8047101562001913576040517f08c379a00000000000000000000000000000000000000000000000000000000081526004016200190a9062003090565b60405180910390fd5b8273ffffffffffffffffffffffffffffffffffffffff1663a9059cbb33896040518363ffffffff1660e01b81526004016200195092919062002930565b6020604051808303816000875af115801562001970573d6000803e3d6000fd5b505050506040513d601f19601f820116820180604052508101906200199691906200299a565b620019d8576040517f08c379a0000000000000000000000000000000000000000000000000000000008152600401620019cf9062002a1c565b60405180910390fd5b86600360003373ffffffffffffffffffffffffffffffffffffffff1673ffffffffffffffffffffffffffffffffffffffff16815260200190815260200160002060008673ffffffffffffffffffffffffffffffffffffffff1673ffffffffffffffffffffffffffffffffffffffff168152602001908152602001600020600082825462001a66919062002ed5565b925050819055503373ffffffffffffffffffffffffffffffffffffffff166108fc829081150290604051600060405180830381858888f1935050505015801562001ab4573d6000803e3d6000fd5b5062001b726040518060400160405280601781526020017f7573657220746f6b656e2042616c616e63652d2d2d2d2d000000000000000000815250600360003373ffffffffffffffffffffffffffffffffffffffff1673ffffffffffffffffffffffffffffffffffffffff16815260200190815260200160002060008773ffffffffffffffffffffffffffffffffffffffff1673ffffffffffffffffffffffffffffffffffffffff1681526020019081526020016000205462001bf4565b8373ffffffffffffffffffffffffffffffffffffffff163373ffffffffffffffffffffffffffffffffffffffff167faa0ff4c78f422674913eb3167bd8a69b980cbced1731cf9bf926dc08a610630689844260405162001bd59392919062002a79565b60405180910390a35050505050505050565b6000600180549050905090565b62001c90828260405160240162001c0d929190620030b2565b6040516020818303038152906040527fb60e72cc000000000000000000000000000000000000000000000000000000007bffffffffffffffffffffffffffffffffffffffffffffffffffffffff19166020820180517bffffffffffffffffffffffffffffffffffffffffffffffffffffffff838183161783525050505062001c94565b5050565b62001caf8162001ca762001cb262001cd3565b63ffffffff16565b50565b60006a636f6e736f6c652e6c6f679050600080835160208501845afa505050565b62001d32819050919050565b6040518060a00160405280600073ffffffffffffffffffffffffffffffffffffffff168152602001606081526020016060815260200160008152602001600081525090565b611a89806200311683390190565b62001d3c620030e6565b565b6000604051905090565b600080fd5b600080fd5b600080fd5b600080fd5b6000601f19601f8301169050919050565b7f4e487b7100000000000000000000000000000000000000000000000000000000600052604160045260246000fd5b62001da78262001d5c565b810181811067ffffffffffffffff8211171562001dc95762001dc862001d6d565b5b80604052505050565b600062001dde62001d3e565b905062001dec828262001d9c565b919050565b600067ffffffffffffffff82111562001e0f5762001e0e62001d6d565b5b62001e1a8262001d5c565b9050602081019050919050565b82818337600083830152505050565b600062001e4d62001e478462001df1565b62001dd2565b90508281526020810184848401111562001e6c5762001e6b62001d57565b5b62001e7984828562001e27565b509392505050565b600082601f83011262001e995762001e9862001d52565b5b813562001eab84826020860162001e36565b91505092915050565b600073ffffffffffffffffffffffffffffffffffffffff82169050919050565b600062001ee18262001eb4565b9050919050565b62001ef38162001ed4565b811462001eff57600080fd5b50565b60008135905062001f138162001ee8565b92915050565b6000806040838503121562001f335762001f3262001d48565b5b600083013567ffffffffffffffff81111562001f545762001f5362001d4d565b5b62001f628582860162001e81565b925050602062001f758582860162001f02565b9150509250929050565b6000819050919050565b62001f948162001f7f565b82525050565b600060208201905062001fb1600083018462001f89565b92915050565b60006020828403121562001fd05762001fcf62001d48565b5b600082013567ffffffffffffffff81111562001ff15762001ff062001d4d565b5b62001fff8482850162001e81565b91505092915050565b600081519050919050565b600082825260208201905092915050565b6000819050602082019050919050565b6200203f8162001ed4565b82525050565b600081519050919050565b600082825260208201905092915050565b60005b838110156200208157808201518184015260208101905062002064565b60008484015250505050565b60006200209a8262002045565b620020a6818562002050565b9350620020b881856020860162002061565b620020c38162001d5c565b840191505092915050565b620020d98162001f7f565b82525050565b600060a083016000830151620020f9600086018262002034565b50602083015184820360208601526200211382826200208d565b915050604083015184820360408601526200212f82826200208d565b9150506060830151620021466060860182620020ce565b5060808301516200215b6080860182620020ce565b508091505092915050565b6000620021748383620020df565b905092915050565b6000602082019050919050565b6000620021968262002008565b620021a2818562002013565b935083602082028501620021b68562002024565b8060005b85811015620021f85784840389528151620021d6858262002166565b9450620021e3836200217c565b925060208a01995050600181019050620021ba565b50829750879550505050505092915050565b6000602082019050818103600083015262002226818462002189565b905092915050565b620022398162001f7f565b81146200224557600080fd5b50565b60008135905062002259816200222e565b92915050565b600080600080608085870312156200227c576200227b62001d48565b5b600085013567ffffffffffffffff8111156200229d576200229c62001d4d565b5b620022ab8782880162001e81565b945050602085013567ffffffffffffffff811115620022cf57620022ce62001d4d565b5b620022dd8782880162001e81565b9350506040620022f08782880162002248565b9250506060620023038782880162002248565b91505092959194509250565b6200231a8162001ed4565b82525050565b600082825260208201905092915050565b60006200233e8262002045565b6200234a818562002320565b93506200235c81856020860162002061565b620023678162001d5c565b840191505092915050565b600060a0820190506200238960008301886200230f565b81810360208301526200239d818762002331565b90508181036040830152620023b3818662002331565b9050620023c4606083018562001f89565b620023d3608083018462001f89565b9695505050505050565b600060208284031215620023f657620023f562001d48565b5b6000620024068482850162002248565b91505092915050565b6000806040838503121562002429576200242862001d48565b5b600083013567ffffffffffffffff8111156200244a576200244962001d4d565b5b620024588582860162001e81565b92505060206200246b8582860162002248565b9150509250929050565b600081905092915050565b60006200248d8262002045565b62002499818562002475565b9350620024ab81856020860162002061565b80840191505092915050565b6000620024c5828462002480565b915081905092915050565b7f546f6b656e20696e646578206f7574206f662072616e67650000000000000000600082015250565b60006200250860188362002320565b91506200251582620024d0565b602082019050919050565b600060208201905081810360008301526200253b81620024f9565b9050919050565b7f4e487b7100000000000000000000000000000000000000000000000000000000600052603260045260246000fd5b7f4e487b7100000000000000000000000000000000000000000000000000000000600052602260045260246000fd5b60006002820490506001821680620025b957607f821691505b602082108103620025cf57620025ce62002571565b5b50919050565b60008190508160005260206000209050919050565b60008154620025f981620025a0565b62002605818662002475565b94506001821660008114620026235760018114620026395762002670565b60ff198316865281151582028601935062002670565b6200264485620025d5565b60005b83811015620026685781548189015260018201915060208101905062002647565b838801955050505b50505092915050565b6000620026878284620025ea565b915081905092915050565b7f546f6b656e206e6f7420666f756e640000000000000000000000000000000000600082015250565b6000620026ca600f8362002320565b9150620026d78262002692565b602082019050919050565b60006020820190508181036000830152620026fd81620026bb565b9050919050565b7f4d7573742073656e6420457468657220746f20706572666f726d20746865207360008201527f7761700000000000000000000000000000000000000000000000000000000000602082015250565b60006200276260238362002320565b91506200276f8262002704565b604082019050919050565b60006020820190508181036000830152620027958162002753565b9050919050565b7f4e487b7100000000000000000000000000000000000000000000000000000000600052601260045260246000fd5b7f4e487b7100000000000000000000000000000000000000000000000000000000600052601160045260246000fd5b6000620028078262001f7f565b9150620028148362001f7f565b9250826200282757620028266200279c565b5b828204905092915050565b60006020820190506200284960008301846200230f565b92915050565b60008151905062002860816200222e565b92915050565b6000602082840312156200287f576200287e62001d48565b5b60006200288f848285016200284f565b91505092915050565b7f5377617020636f6e74726163742068617320696e73756666696369656e74207460008201527f6f6b656e2062616c616e63650000000000000000000000000000000000000000602082015250565b6000620028f6602c8362002320565b9150620029038262002898565b604082019050919050565b600060208201905081810360008301526200292981620028e7565b9050919050565b60006040820190506200294760008301856200230f565b62002956602083018462001f89565b9392505050565b60008115159050919050565b62002974816200295d565b81146200298057600080fd5b50565b600081519050620029948162002969565b92915050565b600060208284031215620029b357620029b262001d48565b5b6000620029c38482850162002983565b91505092915050565b7f546f6b656e207472616e73666572206661696c65640000000000000000000000600082015250565b600062002a0460158362002320565b915062002a1182620029cc565b602082019050919050565b6000602082019050818103600083015262002a3781620029f5565b9050919050565b600062002a4b8262001f7f565b915062002a588362001f7f565b925082820190508082111562002a735762002a72620027cb565b5b92915050565b600060608201905062002a90600083018662001f89565b62002a9f602083018562001f89565b62002aae604083018462001f89565b949350505050565b600062002ac38262001f7f565b91507fffffffffffffffffffffffffffffffffffffffffffffffffffffffffffffffff820362002af85762002af7620027cb565b5b600182019050919050565b7f4f6e6c7920746865206f776e65722063616e20706572666f726d20746869732060008201527f6f7065726174696f6e0000000000000000000000000000000000000000000000602082015250565b600062002b6160298362002320565b915062002b6e8262002b03565b604082019050919050565b6000602082019050818103600083015262002b948162002b52565b9050919050565b6000606082019050818103600083015262002bb7818662002331565b9050818103602083015262002bcd818562002331565b905062002bde604083018462001f89565b949350505050565b600062002bf38262001f7f565b915062002c008362001f7f565b925082820262002c108162001f7f565b9150828204841483151762002c2a5762002c29620027cb565b5b5092915050565b60006020601f8301049050919050565b600082821b905092915050565b60006008830262002c807fffffffffffffffffffffffffffffffffffffffffffffffffffffffffffffffff8262002c41565b62002c8c868362002c41565b95508019841693508086168417925050509392505050565b6000819050919050565b600062002ccf62002cc962002cc38462001f7f565b62002ca4565b62001f7f565b9050919050565b6000819050919050565b62002ceb8362002cae565b62002d0362002cfa8262002cd6565b84845462002c4e565b825550505050565b600090565b62002d1a62002d0b565b62002d2781848462002ce0565b505050565b5b8181101562002d4f5762002d4360008262002d10565b60018101905062002d2d565b5050565b601f82111562002d9e5762002d6881620025d5565b62002d738462002c31565b8101602085101562002d83578190505b62002d9b62002d928562002c31565b83018262002d2c565b50505b505050565b600082821c905092915050565b600062002dc36000198460080262002da3565b1980831691505092915050565b600062002dde838362002db0565b9150826002028217905092915050565b62002df98262002045565b67ffffffffffffffff81111562002e155762002e1462001d6d565b5b62002e218254620025a0565b62002e2e82828562002d53565b600060209050601f83116001811462002e66576000841562002e51578287015190505b62002e5d858262002dd0565b86555062002ecd565b601f19841662002e7686620025d5565b60005b8281101562002ea05784890151825560018201915060208501945060208101905062002e79565b8683101562002ec0578489015162002ebc601f89168262002db0565b8355505b6001600288020188555050505b505050505050565b600062002ee28262001f7f565b915062002eef8362001f7f565b925082820390508181111562002f0a5762002f09620027cb565b5b92915050565b7f546f6b656e206e6f7420466f756e640000000000000000000000000000000000600082015250565b600062002f48600f8362002320565b915062002f558262002f10565b602082019050919050565b6000602082019050818103600083015262002f7b8162002f39565b9050919050565b7f546f6b656e20616d6f756e74206d75737420626520677261746572207468656e60008201527f2030000000000000000000000000000000000000000000000000000000000000602082015250565b600062002fe060228362002320565b915062002fed8262002f82565b604082019050919050565b60006020820190508181036000830152620030138162002fd1565b9050919050565b7f5377617020636f6e74726163742068617320696e63756666696369656e74206560008201527f746865722062616c616e63650000000000000000000000000000000000000000602082015250565b600062003078602c8362002320565b915062003085826200301a565b604082019050919050565b60006020820190508181036000830152620030ab8162003069565b9050919050565b60006040820190508181036000830152620030ce818562002331565b9050620030df602083018462001f89565b9392505050565b7f4e487b7100000000000000000000000000000000000000000000000000000000600052605160045260246000fdfe60806040523480156200001157600080fd5b5060405162001a8938038062001a8983398181016040528101906200003791906200053b565b828281600390816200004a919062000816565b5080600490816200005c919062000816565b5050506200009e3362000074620000a760201b60201c565b60ff16600a62000085919062000a80565b8362000092919062000ad1565b620000b060201b60201c565b50505062000c24565b60006012905090565b600073ffffffffffffffffffffffffffffffffffffffff168273ffffffffffffffffffffffffffffffffffffffff1603620001255760006040517fec442f050000000000000000000000000000000000000000000000000000000081526004016200011c919062000b61565b60405180910390fd5b62000139600083836200013d60201b60201c565b5050565b600073ffffffffffffffffffffffffffffffffffffffff168373ffffffffffffffffffffffffffffffffffffffff16036200019357806002600082825462000186919062000b7e565b9250508190555062000269565b60008060008573ffffffffffffffffffffffffffffffffffffffff1673ffffffffffffffffffffffffffffffffffffffff1681526020019081526020016000205490508181101562000222578381836040517fe450d38c000000000000000000000000000000000000000000000000000000008152600401620002199392919062000bca565b60405180910390fd5b8181036000808673ffffffffffffffffffffffffffffffffffffffff1673ffffffffffffffffffffffffffffffffffffffff16815260200190815260200160002081905550505b600073ffffffffffffffffffffffffffffffffffffffff168273ffffffffffffffffffffffffffffffffffffffff1603620002b4578060026000828254039250508190555062000301565b806000808473ffffffffffffffffffffffffffffffffffffffff1673ffffffffffffffffffffffffffffffffffffffff168152602001908152602001600020600082825401925050819055505b8173ffffffffffffffffffffffffffffffffffffffff168373ffffffffffffffffffffffffffffffffffffffff167fddf252ad1be2c89b69c2b068fc378daa952ba7f163c4a11628f55a4df523b3ef8360405162000360919062000c07565b60405180910390a3505050565b6000604051905090565b600080fd5b600080fd5b600080fd5b600080fd5b6000601f19601f8301169050919050565b7f4e487b7100000000000000000000000000000000000000000000000000000000600052604160045260246000fd5b620003d6826200038b565b810181811067ffffffffffffffff82111715620003f857620003f76200039c565b5b80604052505050565b60006200040d6200036d565b90506200041b8282620003cb565b919050565b600067ffffffffffffffff8211156200043e576200043d6200039c565b5b62000449826200038b565b9050602081019050919050565b60005b838110156200047657808201518184015260208101905062000459565b60008484015250505050565b600062000499620004938462000420565b62000401565b905082815260208101848484011115620004b857620004b762000386565b5b620004c584828562000456565b509392505050565b600082601f830112620004e557620004e462000381565b5b8151620004f784826020860162000482565b91505092915050565b6000819050919050565b620005158162000500565b81146200052157600080fd5b50565b60008151905062000535816200050a565b92915050565b60008060006060848603121562000557576200055662000377565b5b600084015167ffffffffffffffff8111156200057857620005776200037c565b5b6200058686828701620004cd565b935050602084015167ffffffffffffffff811115620005aa57620005a96200037c565b5b620005b886828701620004cd565b9250506040620005cb8682870162000524565b9150509250925092565b600081519050919050565b7f4e487b7100000000000000000000000000000000000000000000000000000000600052602260045260246000fd5b600060028204905060018216806200062857607f821691505b6020821081036200063e576200063d620005e0565b5b50919050565b60008190508160005260206000209050919050565b60006020601f8301049050919050565b600082821b905092915050565b600060088302620006a87fffffffffffffffffffffffffffffffffffffffffffffffffffffffffffffffff8262000669565b620006b4868362000669565b95508019841693508086168417925050509392505050565b6000819050919050565b6000620006f7620006f1620006eb8462000500565b620006cc565b62000500565b9050919050565b6000819050919050565b6200071383620006d6565b6200072b6200072282620006fe565b84845462000676565b825550505050565b600090565b6200074262000733565b6200074f81848462000708565b505050565b5b8181101562000777576200076b60008262000738565b60018101905062000755565b5050565b601f821115620007c657620007908162000644565b6200079b8462000659565b81016020851015620007ab578190505b620007c3620007ba8562000659565b83018262000754565b50505b505050565b600082821c905092915050565b6000620007eb60001984600802620007cb565b1980831691505092915050565b6000620008068383620007d8565b9150826002028217905092915050565b6200082182620005d5565b67ffffffffffffffff8111156200083d576200083c6200039c565b5b6200084982546200060f565b620008568282856200077b565b600060209050601f8311600181146200088e576000841562000879578287015190505b620008858582620007f8565b865550620008f5565b601f1984166200089e8662000644565b60005b82811015620008c857848901518255600182019150602085019450602081019050620008a1565b86831015620008e85784890151620008e4601f891682620007d8565b8355505b6001600288020188555050505b505050505050565b7f4e487b7100000000000000000000000000000000000000000000000000000000600052601160045260246000fd5b60008160011c9050919050565b6000808291508390505b60018511156200098b57808604811115620009635762000962620008fd565b5b6001851615620009735780820291505b808102905062000983856200092c565b945062000943565b94509492505050565b600082620009a6576001905062000a79565b81620009b6576000905062000a79565b8160018114620009cf5760028114620009da5762000a10565b600191505062000a79565b60ff841115620009ef57620009ee620008fd565b5b8360020a91508482111562000a095762000a08620008fd565b5b5062000a79565b5060208310610133831016604e8410600b841016171562000a4a5782820a90508381111562000a445762000a43620008fd565b5b62000a79565b62000a59848484600162000939565b9250905081840481111562000a735762000a72620008fd565b5b81810290505b9392505050565b600062000a8d8262000500565b915062000a9a8362000500565b925062000ac97fffffffffffffffffffffffffffffffffffffffffffffffffffffffffffffffff848462000994565b905092915050565b600062000ade8262000500565b915062000aeb8362000500565b925082820262000afb8162000500565b9150828204841483151762000b155762000b14620008fd565b5b5092915050565b600073ffffffffffffffffffffffffffffffffffffffff82169050919050565b600062000b498262000b1c565b9050919050565b62000b5b8162000b3c565b82525050565b600060208201905062000b78600083018462000b50565b92915050565b600062000b8b8262000500565b915062000b988362000500565b925082820190508082111562000bb35762000bb2620008fd565b5b92915050565b62000bc48162000500565b82525050565b600060608201905062000be1600083018662000b50565b62000bf0602083018562000bb9565b62000bff604083018462000bb9565b949350505050565b600060208201905062000c1e600083018462000bb9565b92915050565b610e558062000c346000396000f3fe608060405234801561001057600080fd5b50600436106100935760003560e01c8063313ce56711610066578063313ce5671461013457806370a082311461015257806395d89b4114610182578063a9059cbb146101a0578063dd62ed3e146101d057610093565b806306fdde0314610098578063095ea7b3146100b657806318160ddd146100e657806323b872dd14610104575b600080fd5b6100a0610200565b6040516100ad9190610aa9565b60405180910390f35b6100d060048036038101906100cb9190610b64565b610292565b6040516100dd9190610bbf565b60405180910390f35b6100ee6102b5565b6040516100fb9190610be9565b60405180910390f35b61011e60048036038101906101199190610c04565b6102bf565b60405161012b9190610bbf565b60405180910390f35b61013c6102ee565b6040516101499190610c73565b60405180910390f35b61016c60048036038101906101679190610c8e565b6102f7565b6040516101799190610be9565b60405180910390f35b61018a61033f565b6040516101979190610aa9565b60405180910390f35b6101ba60048036038101906101b59190610b64565b6103d1565b6040516101c79190610bbf565b60405180910390f35b6101ea60048036038101906101e59190610cbb565b6103f4565b6040516101f79190610be9565b60405180910390f35b60606003805461020f90610d2a565b80601f016020809104026020016040519081016040528092919081815260200182805461023b90610d2a565b80156102885780601f1061025d57610100808354040283529160200191610288565b820191906000526020600020905b81548152906001019060200180831161026b57829003601f168201915b5050505050905090565b60008061029d61047b565b90506102aa818585610483565b600191505092915050565b6000600254905090565b6000806102ca61047b565b90506102d7858285610495565b6102e2858585610529565b60019150509392505050565b60006012905090565b60008060008373ffffffffffffffffffffffffffffffffffffffff1673ffffffffffffffffffffffffffffffffffffffff168152602001908152602001600020549050919050565b60606004805461034e90610d2a565b80601f016020809104026020016040519081016040528092919081815260200182805461037a90610d2a565b80156103c75780601f1061039c576101008083540402835291602001916103c7565b820191906000526020600020905b8154815290600101906020018083116103aa57829003601f168201915b5050505050905090565b6000806103dc61047b565b90506103e9818585610529565b600191505092915050565b6000600160008473ffffffffffffffffffffffffffffffffffffffff1673ffffffffffffffffffffffffffffffffffffffff16815260200190815260200160002060008373ffffffffffffffffffffffffffffffffffffffff1673ffffffffffffffffffffffffffffffffffffffff16815260200190815260200160002054905092915050565b600033905090565b610490838383600161061d565b505050565b60006104a184846103f4565b90507fffffffffffffffffffffffffffffffffffffffffffffffffffffffffffffffff81146105235781811015610513578281836040517ffb8f41b200000000000000000000000000000000000000000000000000000000815260040161050a93929190610d6a565b60405180910390fd5b6105228484848403600061061d565b5b50505050565b600073ffffffffffffffffffffffffffffffffffffffff168373ffffffffffffffffffffffffffffffffffffffff160361059b5760006040517f96c6fd1e0000000000000000000000000000000000000000000000000000000081526004016105929190610da1565b60405180910390fd5b600073ffffffffffffffffffffffffffffffffffffffff168273ffffffffffffffffffffffffffffffffffffffff160361060d5760006040517fec442f050000000000000000000000000000000000000000000000000000000081526004016106049190610da1565b60405180910390fd5b6106188383836107f4565b505050565b600073ffffffffffffffffffffffffffffffffffffffff168473ffffffffffffffffffffffffffffffffffffffff160361068f5760006040517fe602df050000000000000000000000000000000000000000000000000000000081526004016106869190610da1565b60405180910390fd5b600073ffffffffffffffffffffffffffffffffffffffff168373ffffffffffffffffffffffffffffffffffffffff16036107015760006040517f94280d620000000000000000000000000000000000000000000000000000000081526004016106f89190610da1565b60405180910390fd5b81600160008673ffffffffffffffffffffffffffffffffffffffff1673ffffffffffffffffffffffffffffffffffffffff16815260200190815260200160002060008573ffffffffffffffffffffffffffffffffffffffff1673ffffffffffffffffffffffffffffffffffffffff1681526020019081526020016000208190555080156107ee578273ffffffffffffffffffffffffffffffffffffffff168473ffffffffffffffffffffffffffffffffffffffff167f8c5be1e5ebec7d5bd14f71427d1e84f3dd0314c0f7b2291e5b200ac8c7c3b925846040516107e59190610be9565b60405180910390a35b50505050565b600073ffffffffffffffffffffffffffffffffffffffff168373ffffffffffffffffffffffffffffffffffffffff160361084657806002600082825461083a9190610deb565b92505081905550610919565b60008060008573ffffffffffffffffffffffffffffffffffffffff1673ffffffffffffffffffffffffffffffffffffffff168152602001908152602001600020549050818110156108d2578381836040517fe450d38c0000000000000000000000000000000000000000000000000000000081526004016108c993929190610d6a565b60405180910390fd5b8181036000808673ffffffffffffffffffffffffffffffffffffffff1673ffffffffffffffffffffffffffffffffffffffff16815260200190815260200160002081905550505b600073ffffffffffffffffffffffffffffffffffffffff168273ffffffffffffffffffffffffffffffffffffffff160361096257806002600082825403925050819055506109af565b806000808473ffffffffffffffffffffffffffffffffffffffff1673ffffffffffffffffffffffffffffffffffffffff168152602001908152602001600020600082825401925050819055505b8173ffffffffffffffffffffffffffffffffffffffff168373ffffffffffffffffffffffffffffffffffffffff167fddf252ad1be2c89b69c2b068fc378daa952ba7f163c4a11628f55a4df523b3ef83604051610a0c9190610be9565b60405180910390a3505050565b600081519050919050565b600082825260208201905092915050565b60005b83811015610a53578082015181840152602081019050610a38565b60008484015250505050565b6000601f19601f8301169050919050565b6000610a7b82610a19565b610a858185610a24565b9350610a95818560208601610a35565b610a9e81610a5f565b840191505092915050565b60006020820190508181036000830152610ac38184610a70565b905092915050565b600080fd5b600073ffffffffffffffffffffffffffffffffffffffff82169050919050565b6000610afb82610ad0565b9050919050565b610b0b81610af0565b8114610b1657600080fd5b50565b600081359050610b2881610b02565b92915050565b6000819050919050565b610b4181610b2e565b8114610b4c57600080fd5b50565b600081359050610b5e81610b38565b92915050565b60008060408385031215610b7b57610b7a610acb565b5b6000610b8985828601610b19565b9250506020610b9a85828601610b4f565b9150509250929050565b60008115159050919050565b610bb981610ba4565b82525050565b6000602082019050610bd46000830184610bb0565b92915050565b610be381610b2e565b82525050565b6000602082019050610bfe6000830184610bda565b92915050565b600080600060608486031215610c1d57610c1c610acb565b5b6000610c2b86828701610b19565b9350506020610c3c86828701610b19565b9250506040610c4d86828701610b4f565b9150509250925092565b600060ff82169050919050565b610c6d81610c57565b82525050565b6000602082019050610c886000830184610c64565b92915050565b600060208284031215610ca457610ca3610acb565b5b6000610cb284828501610b19565b91505092915050565b60008060408385031215610cd257610cd1610acb565b5b6000610ce085828601610b19565b9250506020610cf185828601610b19565b9150509250929050565b7f4e487b7100000000000000000000000000000000000000000000000000000000600052602260045260246000fd5b60006002820490506001821680610d4257607f821691505b602082108103610d5557610d54610cfb565b5b50919050565b610d6481610af0565b82525050565b6000606082019050610d7f6000830186610d5b565b610d8c6020830185610bda565b610d996040830184610bda565b949350505050565b6000602082019050610db66000830184610d5b565b92915050565b7f4e487b7100000000000000000000000000000000000000000000000000000000600052601160045260246000fd5b6000610df682610b2e565b9150610e0183610b2e565b9250828201905080821115610e1957610e18610dbc565b5b9291505056fea2646970667358221220d012e7922a132357347f10ce93e5ca83095c78eeeddb31de306ea0527050656a64736f6c63430008140033a2646970667358221220b3b0e6846e4c422f4fb4c5e5a8b38675294919e84fc369ae87f0ba84e8d7a40664736f6c63430008140033",
  "linkReferences": {},
  "deployedLinkReferences": {}
}