{
  "_format": "hh-sol-artifact-1",
  "contractName": "Swap",
  "sourceName": "contracts/Swap.sol",
  "abi": [
    {
      "inputs": [],
      "stateMutability": "nonpayable",
      "type": "constructor"
    },
    {
      "inputs": [
        {
          "internalType": "address",
          "name": "tokenAddress",
          "type": "address"
        },
        {
          "internalType": "uint256",
          "name": "priceinwei",
          "type": "uint256"
        }
      ],
      "name": "addSupportedToken",
      "outputs": [],
      "stateMutability": "nonpayable",
      "type": "function"
    },
    {
      "inputs": [
        {
          "internalType": "address",
          "name": "tokenAddress",
          "type": "address"
        },
        {
          "internalType": "address",
          "name": "account",
          "type": "address"
        }
      ],
      "name": "getTokenBalance",
      "outputs": [
        {
          "internalType": "uint256",
          "name": "",
          "type": "uint256"
        }
      ],
      "stateMutability": "view",
      "type": "function"
    },
    {
      "inputs": [],
      "name": "owner",
      "outputs": [
        {
          "internalType": "address",
          "name": "",
          "type": "address"
        }
      ],
      "stateMutability": "view",
      "type": "function"
    },
    {
      "inputs": [
        {
          "internalType": "address",
          "name": "",
          "type": "address"
        }
      ],
      "name": "supportedTokens",
      "outputs": [
        {
          "internalType": "contract IERC20",
          "name": "",
          "type": "address"
        }
      ],
      "stateMutability": "view",
      "type": "function"
    },
    {
      "inputs": [
        {
          "internalType": "address",
          "name": "tokenAddress",
          "type": "address"
        },
        {
          "internalType": "address",
          "name": "tokenOwner",
          "type": "address"
        }
      ],
      "name": "swapEtherForToken",
      "outputs": [],
      "stateMutability": "payable",
      "type": "function"
    },
    {
      "inputs": [
        {
          "internalType": "address",
          "name": "fromTokenAddress",
          "type": "address"
        },
        {
          "internalType": "address",
          "name": "toTokenAddress",
          "type": "address"
        },
        {
          "internalType": "uint256",
          "name": "tokenamount",
          "type": "uint256"
        },
        {
          "internalType": "address",
          "name": "toowner",
          "type": "address"
        }
      ],
      "name": "swapTokenToToken",
      "outputs": [],
      "stateMutability": "nonpayable",
      "type": "function"
    },
    {
      "inputs": [
        {
          "internalType": "address",
          "name": "",
          "type": "address"
        }
      ],
      "name": "tokenPrices",
      "outputs": [
        {
          "internalType": "uint256",
          "name": "",
          "type": "uint256"
        }
      ],
      "stateMutability": "view",
      "type": "function"
    },
    {
      "inputs": [
        {
          "internalType": "address",
          "name": "tokenAddress",
          "type": "address"
        },
        {
          "internalType": "uint256",
          "name": "newPriceinwei",
          "type": "uint256"
        }
      ],
      "name": "updateTokenPrice",
      "outputs": [],
      "stateMutability": "nonpayable",
      "type": "function"
    }
  ],
  "bytecode": "0x608060405234801561001057600080fd5b5033600260006101000a81548173ffffffffffffffffffffffffffffffffffffffff021916908373ffffffffffffffffffffffffffffffffffffffff16021790555061174f806100616000396000f3fe60806040526004361061007b5760003560e01c806368c4ac261161004e57806368c4ac261461012b5780638da5cb5b14610168578063c489744b14610193578063d4ee651b146101d05761007b565b8063204120bc146100805780633f3f80c3146100bd5780634d8e3d3b146100e657806365263f3f1461010f575b600080fd5b34801561008c57600080fd5b506100a760048036038101906100a29190610f40565b6101f9565b6040516100b49190610f86565b60405180910390f35b3480156100c957600080fd5b506100e460048036038101906100df9190610fcd565b610211565b005b3480156100f257600080fd5b5061010d60048036038101906101089190611034565b61066e565b005b61012960048036038101906101249190611074565b6107c3565b005b34801561013757600080fd5b50610152600480360381019061014d9190610f40565b610b0b565b60405161015f9190611113565b60405180910390f35b34801561017457600080fd5b5061017d610b3e565b60405161018a919061113d565b60405180910390f35b34801561019f57600080fd5b506101ba60048036038101906101b59190611074565b610b64565b6040516101c79190610f86565b60405180910390f35b3480156101dc57600080fd5b506101f760048036038101906101f29190611034565b610c4c565b005b60006020528060005260406000206000915090505481565b6000600160008673ffffffffffffffffffffffffffffffffffffffff1673ffffffffffffffffffffffffffffffffffffffff16815260200190815260200160002060009054906101000a900473ffffffffffffffffffffffffffffffffffffffff1690506000600160008673ffffffffffffffffffffffffffffffffffffffff1673ffffffffffffffffffffffffffffffffffffffff16815260200190815260200160002060009054906101000a900473ffffffffffffffffffffffffffffffffffffffff169050600073ffffffffffffffffffffffffffffffffffffffff168273ffffffffffffffffffffffffffffffffffffffff16141580156103435750600073ffffffffffffffffffffffffffffffffffffffff168173ffffffffffffffffffffffffffffffffffffffff1614155b610382576040517f08c379a0000000000000000000000000000000000000000000000000000000008152600401610379906111b5565b60405180910390fd5b838273ffffffffffffffffffffffffffffffffffffffff1663dd62ed3e33306040518363ffffffff1660e01b81526004016103be9291906111d5565b602060405180830381865afa1580156103db573d6000803e3d6000fd5b505050506040513d601f19601f820116820180604052508101906103ff9190611213565b1015610440576040517f08c379a00000000000000000000000000000000000000000000000000000000081526004016104379061128c565b60405180910390fd5b60008060008773ffffffffffffffffffffffffffffffffffffffff1673ffffffffffffffffffffffffffffffffffffffff1681526020019081526020016000205490506000670de0b6b3a7640000828761049a91906112db565b6104a4919061134c565b9050808373ffffffffffffffffffffffffffffffffffffffff166370a08231876040518263ffffffff1660e01b81526004016104e0919061113d565b602060405180830381865afa1580156104fd573d6000803e3d6000fd5b505050506040513d601f19601f820116820180604052508101906105219190611213565b1015610562576040517f08c379a0000000000000000000000000000000000000000000000000000000008152600401610559906113ef565b60405180910390fd5b8373ffffffffffffffffffffffffffffffffffffffff166323b872dd3387896040518463ffffffff1660e01b815260040161059f9392919061140f565b6020604051808303816000875af11580156105be573d6000803e3d6000fd5b505050506040513d601f19601f820116820180604052508101906105e2919061147e565b508273ffffffffffffffffffffffffffffffffffffffff166323b872dd8633846040518463ffffffff1660e01b81526004016106209392919061140f565b6020604051808303816000875af115801561063f573d6000803e3d6000fd5b505050506040513d601f19601f82011682018060405250810190610663919061147e565b505050505050505050565b600260009054906101000a900473ffffffffffffffffffffffffffffffffffffffff1673ffffffffffffffffffffffffffffffffffffffff163373ffffffffffffffffffffffffffffffffffffffff16146106fe576040517f08c379a00000000000000000000000000000000000000000000000000000000081526004016106f59061151d565b60405180910390fd5b81600160008473ffffffffffffffffffffffffffffffffffffffff1673ffffffffffffffffffffffffffffffffffffffff16815260200190815260200160002060006101000a81548173ffffffffffffffffffffffffffffffffffffffff021916908373ffffffffffffffffffffffffffffffffffffffff160217905550806000808473ffffffffffffffffffffffffffffffffffffffff1673ffffffffffffffffffffffffffffffffffffffff168152602001908152602001600020819055505050565b60003411610806576040517f08c379a00000000000000000000000000000000000000000000000000000000081526004016107fd906115af565b60405180910390fd5b6000600160008473ffffffffffffffffffffffffffffffffffffffff1673ffffffffffffffffffffffffffffffffffffffff16815260200190815260200160002060009054906101000a900473ffffffffffffffffffffffffffffffffffffffff169050600073ffffffffffffffffffffffffffffffffffffffff168173ffffffffffffffffffffffffffffffffffffffff16036108d9576040517f08c379a00000000000000000000000000000000000000000000000000000000081526004016108d09061161b565b60405180910390fd5b60008060008573ffffffffffffffffffffffffffffffffffffffff1673ffffffffffffffffffffffffffffffffffffffff168152602001908152602001600020549050600081670de0b6b3a76400003461093391906112db565b61093d919061134c565b905061097e6040518060400160405280600f81526020017f546f6b656e20416d6f756e742d2d2d000000000000000000000000000000000081525082610df1565b808373ffffffffffffffffffffffffffffffffffffffff1663dd62ed3e86306040518363ffffffff1660e01b81526004016109ba9291906111d5565b602060405180830381865afa1580156109d7573d6000803e3d6000fd5b505050506040513d601f19601f820116820180604052508101906109fb9190611213565b1015610a3c576040517f08c379a0000000000000000000000000000000000000000000000000000000008152600401610a339061128c565b60405180910390fd5b8273ffffffffffffffffffffffffffffffffffffffff166323b872dd8533846040518463ffffffff1660e01b8152600401610a799392919061140f565b6020604051808303816000875af1158015610a98573d6000803e3d6000fd5b505050506040513d601f19601f82011682018060405250810190610abc919061147e565b508373ffffffffffffffffffffffffffffffffffffffff166108fc349081150290604051600060405180830381858888f19350505050158015610b03573d6000803e3d6000fd5b505050505050565b60016020528060005260406000206000915054906101000a900473ffffffffffffffffffffffffffffffffffffffff1681565b600260009054906101000a900473ffffffffffffffffffffffffffffffffffffffff1681565b600080600160008573ffffffffffffffffffffffffffffffffffffffff1673ffffffffffffffffffffffffffffffffffffffff16815260200190815260200160002060009054906101000a900473ffffffffffffffffffffffffffffffffffffffff1690508073ffffffffffffffffffffffffffffffffffffffff166370a08231846040518263ffffffff1660e01b8152600401610c02919061113d565b602060405180830381865afa158015610c1f573d6000803e3d6000fd5b505050506040513d601f19601f82011682018060405250810190610c439190611213565b91505092915050565b600260009054906101000a900473ffffffffffffffffffffffffffffffffffffffff1673ffffffffffffffffffffffffffffffffffffffff163373ffffffffffffffffffffffffffffffffffffffff1614610cdc576040517f08c379a0000000000000000000000000000000000000000000000000000000008152600401610cd39061151d565b60405180910390fd5b600073ffffffffffffffffffffffffffffffffffffffff16600160008473ffffffffffffffffffffffffffffffffffffffff1673ffffffffffffffffffffffffffffffffffffffff16815260200190815260200160002060009054906101000a900473ffffffffffffffffffffffffffffffffffffffff1673ffffffffffffffffffffffffffffffffffffffff1603610daa576040517f08c379a0000000000000000000000000000000000000000000000000000000008152600401610da19061161b565b60405180910390fd5b806000808473ffffffffffffffffffffffffffffffffffffffff1673ffffffffffffffffffffffffffffffffffffffff168152602001908152602001600020819055505050565b610e898282604051602401610e079291906116ba565b6040516020818303038152906040527fb60e72cc000000000000000000000000000000000000000000000000000000007bffffffffffffffffffffffffffffffffffffffffffffffffffffffff19166020820180517bffffffffffffffffffffffffffffffffffffffffffffffffffffffff8381831617835250505050610e8d565b5050565b610ea481610e9c610ea7610ec8565b63ffffffff16565b50565b60006a636f6e736f6c652e6c6f679050600080835160208501845afa505050565b610ed3819050919050565b610edb6116ea565b565b600080fd5b600073ffffffffffffffffffffffffffffffffffffffff82169050919050565b6000610f0d82610ee2565b9050919050565b610f1d81610f02565b8114610f2857600080fd5b50565b600081359050610f3a81610f14565b92915050565b600060208284031215610f5657610f55610edd565b5b6000610f6484828501610f2b565b91505092915050565b6000819050919050565b610f8081610f6d565b82525050565b6000602082019050610f9b6000830184610f77565b92915050565b610faa81610f6d565b8114610fb557600080fd5b50565b600081359050610fc781610fa1565b92915050565b60008060008060808587031215610fe757610fe6610edd565b5b6000610ff587828801610f2b565b945050602061100687828801610f2b565b935050604061101787828801610fb8565b925050606061102887828801610f2b565b91505092959194509250565b6000806040838503121561104b5761104a610edd565b5b600061105985828601610f2b565b925050602061106a85828601610fb8565b9150509250929050565b6000806040838503121561108b5761108a610edd565b5b600061109985828601610f2b565b92505060206110aa85828601610f2b565b9150509250929050565b6000819050919050565b60006110d96110d46110cf84610ee2565b6110b4565b610ee2565b9050919050565b60006110eb826110be565b9050919050565b60006110fd826110e0565b9050919050565b61110d816110f2565b82525050565b60006020820190506111286000830184611104565b92915050565b61113781610f02565b82525050565b6000602082019050611152600083018461112e565b92915050565b600082825260208201905092915050565b7f546f6b656e73206e6f7420737570706f72746564000000000000000000000000600082015250565b600061119f601483611158565b91506111aa82611169565b602082019050919050565b600060208201905081810360008301526111ce81611192565b9050919050565b60006040820190506111ea600083018561112e565b6111f7602083018461112e565b9392505050565b60008151905061120d81610fa1565b92915050565b60006020828403121561122957611228610edd565b5b6000611237848285016111fe565b91505092915050565b7f4e6f7420656e6f75676820616c6c6f77616e63652e0000000000000000000000600082015250565b6000611276601583611158565b915061128182611240565b602082019050919050565b600060208201905081810360008301526112a581611269565b9050919050565b7f4e487b7100000000000000000000000000000000000000000000000000000000600052601160045260246000fd5b60006112e682610f6d565b91506112f183610f6d565b92508282026112ff81610f6d565b91508282048414831517611316576113156112ac565b5b5092915050565b7f4e487b7100000000000000000000000000000000000000000000000000000000600052601260045260246000fd5b600061135782610f6d565b915061136283610f6d565b9250826113725761137161131d565b5b828204905092915050565b7f4e6f7420656e6f75676820746f6b656e7320696e2074686520636f6e7472616360008201527f742e000000000000000000000000000000000000000000000000000000000000602082015250565b60006113d9602283611158565b91506113e48261137d565b604082019050919050565b60006020820190508181036000830152611408816113cc565b9050919050565b6000606082019050611424600083018661112e565b611431602083018561112e565b61143e6040830184610f77565b949350505050565b60008115159050919050565b61145b81611446565b811461146657600080fd5b50565b60008151905061147881611452565b92915050565b60006020828403121561149457611493610edd565b5b60006114a284828501611469565b91505092915050565b7f4f6e6c7920746865206f776e65722063616e20706572666f726d20746869732060008201527f6f7065726174696f6e0000000000000000000000000000000000000000000000602082015250565b6000611507602983611158565b9150611512826114ab565b604082019050919050565b60006020820190508181036000830152611536816114fa565b9050919050565b7f596f75206d7573742073656e6420736f6d6520457468657220746f207065726660008201527f6f726d2074686520737761702e00000000000000000000000000000000000000602082015250565b6000611599602d83611158565b91506115a48261153d565b604082019050919050565b600060208201905081810360008301526115c88161158c565b9050919050565b7f546f6b656e206e6f7420737570706f7274656400000000000000000000000000600082015250565b6000611605601383611158565b9150611610826115cf565b602082019050919050565b60006020820190508181036000830152611634816115f8565b9050919050565b600081519050919050565b60005b83811015611664578082015181840152602081019050611649565b60008484015250505050565b6000601f19601f8301169050919050565b600061168c8261163b565b6116968185611158565b93506116a6818560208601611646565b6116af81611670565b840191505092915050565b600060408201905081810360008301526116d48185611681565b90506116e36020830184610f77565b9392505050565b7f4e487b7100000000000000000000000000000000000000000000000000000000600052605160045260246000fdfea264697066735822122027194442a33cabb53b1e05588f5829ed17f0363702f763038d102e2e494c77f864736f6c63430008140033",
  "linkReferences": {},
  "deployedLinkReferences": {}
}